{
  "_format": "hh-sol-artifact-1",
  "contractName": "CrowdFunding",
  "sourceName": "contracts/CrowdFunding.sol",
  "abi": [
    {
      "inputs": [
        {
          "internalType": "uint256",
          "name": "",
          "type": "uint256"
        }
      ],
      "name": "campaigns",
      "outputs": [
        {
          "internalType": "address",
          "name": "owner",
          "type": "address"
        },
        {
          "internalType": "string",
          "name": "title",
          "type": "string"
        },
        {
          "internalType": "string",
          "name": "description",
          "type": "string"
        },
        {
          "internalType": "uint256",
          "name": "target",
          "type": "uint256"
        },
        {
          "internalType": "uint256",
          "name": "deadline",
          "type": "uint256"
        },
        {
          "internalType": "uint256",
          "name": "amountCollected",
          "type": "uint256"
        }
      ],
      "stateMutability": "view",
      "type": "function"
    },
    {
      "inputs": [
        {
          "internalType": "address",
          "name": "_owner",
          "type": "address"
        },
        {
          "internalType": "string",
          "name": "_title",
          "type": "string"
        },
        {
          "internalType": "string",
          "name": "_description",
          "type": "string"
        },
        {
          "internalType": "uint256",
          "name": "_target",
          "type": "uint256"
        },
        {
          "internalType": "uint256",
          "name": "_deadline",
          "type": "uint256"
        }
      ],
      "name": "createCampaign",
      "outputs": [
        {
          "internalType": "uint256",
          "name": "",
          "type": "uint256"
        }
      ],
      "stateMutability": "nonpayable",
      "type": "function"
    },
    {
      "inputs": [
        {
          "internalType": "uint256",
          "name": "_id",
          "type": "uint256"
        }
      ],
      "name": "donateToCampaign",
      "outputs": [],
      "stateMutability": "payable",
      "type": "function"
    },
    {
      "inputs": [
        {
          "internalType": "uint256",
          "name": "",
          "type": "uint256"
        },
        {
          "internalType": "uint256",
          "name": "",
          "type": "uint256"
        }
      ],
      "name": "donations",
      "outputs": [
        {
          "internalType": "uint256",
          "name": "",
          "type": "uint256"
        }
      ],
      "stateMutability": "view",
      "type": "function"
    },
    {
      "inputs": [
        {
          "internalType": "uint256",
          "name": "",
          "type": "uint256"
        },
        {
          "internalType": "uint256",
          "name": "",
          "type": "uint256"
        }
      ],
      "name": "donators",
      "outputs": [
        {
          "internalType": "address",
          "name": "",
          "type": "address"
        }
      ],
      "stateMutability": "view",
      "type": "function"
    },
    {
      "inputs": [],
      "name": "getCampaigns",
      "outputs": [
        {
          "components": [
            {
              "internalType": "address",
              "name": "owner",
              "type": "address"
            },
            {
              "internalType": "string",
              "name": "title",
              "type": "string"
            },
            {
              "internalType": "string",
              "name": "description",
              "type": "string"
            },
            {
              "internalType": "uint256",
              "name": "target",
              "type": "uint256"
            },
            {
              "internalType": "uint256",
              "name": "deadline",
              "type": "uint256"
            },
            {
              "internalType": "uint256",
              "name": "amountCollected",
              "type": "uint256"
            }
          ],
          "internalType": "struct CrowdFunding.Campaign[]",
          "name": "",
          "type": "tuple[]"
        }
      ],
      "stateMutability": "view",
      "type": "function"
    },
    {
      "inputs": [
        {
          "internalType": "uint256",
          "name": "_id",
          "type": "uint256"
        }
      ],
      "name": "getDonators",
      "outputs": [
        {
          "internalType": "address[]",
          "name": "",
          "type": "address[]"
        },
        {
          "internalType": "uint256[]",
          "name": "",
          "type": "uint256[]"
        }
      ],
      "stateMutability": "view",
      "type": "function"
    },
    {
      "inputs": [],
      "name": "numberOfCampaigns",
      "outputs": [
        {
          "internalType": "uint256",
          "name": "",
          "type": "uint256"
        }
      ],
      "stateMutability": "view",
      "type": "function"
    }
  ],
  "bytecode": "0x6080604052600060035534801561001557600080fd5b506117e1806100256000396000f3fe60806040526004361061007b5760003560e01c806342a4fda81161004e57806342a4fda81461016857806348f7b12e14610184578063a6b03633146101c1578063b69874b9146101ec5761007b565b8063075843c31461008057806307ca140d146100bd5780630fa91fa9146100e8578063141961bc14610126575b600080fd5b34801561008c57600080fd5b506100a760048036038101906100a29190610ca8565b610229565b6040516100b49190610d6a565b60405180910390f35b3480156100c957600080fd5b506100d261033e565b6040516100df9190610d6a565b60405180910390f35b3480156100f457600080fd5b5061010f600480360381019061010a9190610d85565b610344565b60405161011d929190610f2e565b60405180910390f35b34801561013257600080fd5b5061014d60048036038101906101489190610d85565b610450565b60405161015f96959493929190610ff3565b60405180910390f35b610182600480360381019061017d9190610d85565b6105bc565b005b34801561019057600080fd5b506101ab60048036038101906101a69190611062565b610792565b6040516101b89190610d6a565b60405180910390f35b3480156101cd57600080fd5b506101d66107c3565b6040516101e3919061123e565b60405180910390f35b3480156101f857600080fd5b50610213600480360381019061020e9190611062565b610a20565b6040516102209190611260565b60405180910390f35b6000806000806003548152602001908152602001600020905042816004015410610288576040517f08c379a000000000000000000000000000000000000000000000000000000000815260040161027f906112ed565b60405180910390fd5b868160000160006101000a81548173ffffffffffffffffffffffffffffffffffffffff021916908373ffffffffffffffffffffffffffffffffffffffff160217905550858160010190816102dc9190611519565b50848160020190816102ee9190611519565b50838160030181905550828160040181905550600081600501819055506003600081548092919061031e9061161a565b919050555060016003546103329190611662565b91505095945050505050565b60035481565b6060806001600084815260200190815260200160002060026000858152602001908152602001600020818054806020026020016040519081016040528092919081815260200182805480156103ee57602002820191906000526020600020905b8160009054906101000a900473ffffffffffffffffffffffffffffffffffffffff1673ffffffffffffffffffffffffffffffffffffffff16815260200190600101908083116103a4575b505050505091508080548060200260200160405190810160405280929190818152602001828054801561044057602002820191906000526020600020905b81548152602001906001019080831161042c575b5050505050905091509150915091565b60006020528060005260406000206000915090508060000160009054906101000a900473ffffffffffffffffffffffffffffffffffffffff16908060010180546104999061133c565b80601f01602080910402602001604051908101604052809291908181526020018280546104c59061133c565b80156105125780601f106104e757610100808354040283529160200191610512565b820191906000526020600020905b8154815290600101906020018083116104f557829003601f168201915b5050505050908060020180546105279061133c565b80601f01602080910402602001604051908101604052809291908181526020018280546105539061133c565b80156105a05780601f10610575576101008083540402835291602001916105a0565b820191906000526020600020905b81548152906001019060200180831161058357829003601f168201915b5050505050908060030154908060040154908060050154905086565b6000349050600080600084815260200190815260200160002090506001600060016003546105ea9190611662565b8152602001908152602001600020339080600181540180825580915050600190039060005260206000200160009091909190916101000a81548173ffffffffffffffffffffffffffffffffffffffff021916908373ffffffffffffffffffffffffffffffffffffffff16021790555060026000600160035461066c9190611662565b8152602001908152602001600020829080600181540180825580915050600190039060005260206000200160009091909190915055818160050160008282546106b59190611696565b9250508190555060008160000160009054906101000a900473ffffffffffffffffffffffffffffffffffffffff1673ffffffffffffffffffffffffffffffffffffffff1683604051610706906116fb565b60006040518083038185875af1925050503d8060008114610743576040519150601f19603f3d011682016040523d82523d6000602084013e610748565b606091505b505090508061078c576040517f08c379a00000000000000000000000000000000000000000000000000000000081526004016107839061175c565b60405180910390fd5b50505050565b600260205281600052604060002081815481106107ae57600080fd5b90600052602060002001600091509150505481565b6060600060035467ffffffffffffffff8111156107e3576107e2610b47565b5b60405190808252806020026020018201604052801561081c57816020015b610809610a6e565b8152602001906001900390816108015790505b50905060005b600354811015610a185760008060008381526020019081526020016000209050806040518060c00160405290816000820160009054906101000a900473ffffffffffffffffffffffffffffffffffffffff1673ffffffffffffffffffffffffffffffffffffffff1673ffffffffffffffffffffffffffffffffffffffff1681526020016001820180546108b49061133c565b80601f01602080910402602001604051908101604052809291908181526020018280546108e09061133c565b801561092d5780601f106109025761010080835404028352916020019161092d565b820191906000526020600020905b81548152906001019060200180831161091057829003601f168201915b505050505081526020016002820180546109469061133c565b80601f01602080910402602001604051908101604052809291908181526020018280546109729061133c565b80156109bf5780601f10610994576101008083540402835291602001916109bf565b820191906000526020600020905b8154815290600101906020018083116109a257829003601f168201915b5050505050815260200160038201548152602001600482015481526020016005820154815250508383815181106109f9576109f861177c565b5b6020026020010181905250508080610a109061161a565b915050610822565b508091505090565b60016020528160005260406000208181548110610a3c57600080fd5b906000526020600020016000915091509054906101000a900473ffffffffffffffffffffffffffffffffffffffff1681565b6040518060c00160405280600073ffffffffffffffffffffffffffffffffffffffff16815260200160608152602001606081526020016000815260200160008152602001600081525090565b6000604051905090565b600080fd5b600080fd5b600073ffffffffffffffffffffffffffffffffffffffff82169050919050565b6000610af982610ace565b9050919050565b610b0981610aee565b8114610b1457600080fd5b50565b600081359050610b2681610b00565b92915050565b600080fd5b600080fd5b6000601f19601f8301169050919050565b7f4e487b7100000000000000000000000000000000000000000000000000000000600052604160045260246000fd5b610b7f82610b36565b810181811067ffffffffffffffff82111715610b9e57610b9d610b47565b5b80604052505050565b6000610bb1610aba565b9050610bbd8282610b76565b919050565b600067ffffffffffffffff821115610bdd57610bdc610b47565b5b610be682610b36565b9050602081019050919050565b82818337600083830152505050565b6000610c15610c1084610bc2565b610ba7565b905082815260208101848484011115610c3157610c30610b31565b5b610c3c848285610bf3565b509392505050565b600082601f830112610c5957610c58610b2c565b5b8135610c69848260208601610c02565b91505092915050565b6000819050919050565b610c8581610c72565b8114610c9057600080fd5b50565b600081359050610ca281610c7c565b92915050565b600080600080600060a08688031215610cc457610cc3610ac4565b5b6000610cd288828901610b17565b955050602086013567ffffffffffffffff811115610cf357610cf2610ac9565b5b610cff88828901610c44565b945050604086013567ffffffffffffffff811115610d2057610d1f610ac9565b5b610d2c88828901610c44565b9350506060610d3d88828901610c93565b9250506080610d4e88828901610c93565b9150509295509295909350565b610d6481610c72565b82525050565b6000602082019050610d7f6000830184610d5b565b92915050565b600060208284031215610d9b57610d9a610ac4565b5b6000610da984828501610c93565b91505092915050565b600081519050919050565b600082825260208201905092915050565b6000819050602082019050919050565b610de781610aee565b82525050565b6000610df98383610dde565b60208301905092915050565b6000602082019050919050565b6000610e1d82610db2565b610e278185610dbd565b9350610e3283610dce565b8060005b83811015610e63578151610e4a8882610ded565b9750610e5583610e05565b925050600181019050610e36565b5085935050505092915050565b600081519050919050565b600082825260208201905092915050565b6000819050602082019050919050565b610ea581610c72565b82525050565b6000610eb78383610e9c565b60208301905092915050565b6000602082019050919050565b6000610edb82610e70565b610ee58185610e7b565b9350610ef083610e8c565b8060005b83811015610f21578151610f088882610eab565b9750610f1383610ec3565b925050600181019050610ef4565b5085935050505092915050565b60006040820190508181036000830152610f488185610e12565b90508181036020830152610f5c8184610ed0565b90509392505050565b610f6e81610aee565b82525050565b600081519050919050565b600082825260208201905092915050565b60005b83811015610fae578082015181840152602081019050610f93565b60008484015250505050565b6000610fc582610f74565b610fcf8185610f7f565b9350610fdf818560208601610f90565b610fe881610b36565b840191505092915050565b600060c0820190506110086000830189610f65565b818103602083015261101a8188610fba565b9050818103604083015261102e8187610fba565b905061103d6060830186610d5b565b61104a6080830185610d5b565b61105760a0830184610d5b565b979650505050505050565b6000806040838503121561107957611078610ac4565b5b600061108785828601610c93565b925050602061109885828601610c93565b9150509250929050565b600081519050919050565b600082825260208201905092915050565b6000819050602082019050919050565b600082825260208201905092915050565b60006110ea82610f74565b6110f481856110ce565b9350611104818560208601610f90565b61110d81610b36565b840191505092915050565b600060c0830160008301516111306000860182610dde565b506020830151848203602086015261114882826110df565b9150506040830151848203604086015261116282826110df565b91505060608301516111776060860182610e9c565b50608083015161118a6080860182610e9c565b5060a083015161119d60a0860182610e9c565b508091505092915050565b60006111b48383611118565b905092915050565b6000602082019050919050565b60006111d4826110a2565b6111de81856110ad565b9350836020820285016111f0856110be565b8060005b8581101561122c578484038952815161120d85826111a8565b9450611218836111bc565b925060208a019950506001810190506111f4565b50829750879550505050505092915050565b6000602082019050818103600083015261125881846111c9565b905092915050565b60006020820190506112756000830184610f65565b92915050565b7f54686520646561646c696e652073686f756c642062652061206461746520696e60008201527f20746865206675747572652e0000000000000000000000000000000000000000602082015250565b60006112d7602c83610f7f565b91506112e28261127b565b604082019050919050565b60006020820190508181036000830152611306816112ca565b9050919050565b7f4e487b7100000000000000000000000000000000000000000000000000000000600052602260045260246000fd5b6000600282049050600182168061135457607f821691505b6020821081036113675761136661130d565b5b50919050565b60008190508160005260206000209050919050565b60006020601f8301049050919050565b600082821b905092915050565b6000600883026113cf7fffffffffffffffffffffffffffffffffffffffffffffffffffffffffffffffff82611392565b6113d98683611392565b95508019841693508086168417925050509392505050565b6000819050919050565b600061141661141161140c84610c72565b6113f1565b610c72565b9050919050565b6000819050919050565b611430836113fb565b61144461143c8261141d565b84845461139f565b825550505050565b600090565b61145961144c565b611464818484611427565b505050565b5b818110156114885761147d600082611451565b60018101905061146a565b5050565b601f8211156114cd5761149e8161136d565b6114a784611382565b810160208510156114b6578190505b6114ca6114c285611382565b830182611469565b50505b505050565b600082821c905092915050565b60006114f0600019846008026114d2565b1980831691505092915050565b600061150983836114df565b9150826002028217905092915050565b61152282610f74565b67ffffffffffffffff81111561153b5761153a610b47565b5b611545825461133c565b61155082828561148c565b600060209050601f8311600181146115835760008415611571578287015190505b61157b85826114fd565b8655506115e3565b601f1984166115918661136d565b60005b828110156115b957848901518255600182019150602085019450602081019050611594565b868310156115d657848901516115d2601f8916826114df565b8355505b6001600288020188555050505b505050505050565b7f4e487b7100000000000000000000000000000000000000000000000000000000600052601160045260246000fd5b600061162582610c72565b91507fffffffffffffffffffffffffffffffffffffffffffffffffffffffffffffffff8203611657576116566115eb565b5b600182019050919050565b600061166d82610c72565b915061167883610c72565b92508282039050818111156116905761168f6115eb565b5b92915050565b60006116a182610c72565b91506116ac83610c72565b92508282019050808211156116c4576116c36115eb565b5b92915050565b600081905092915050565b50565b60006116e56000836116ca565b91506116f0826116d5565b600082019050919050565b6000611706826116d8565b9150819050919050565b7f6661696c65640000000000000000000000000000000000000000000000000000600082015250565b6000611746600683610f7f565b915061175182611710565b602082019050919050565b6000602082019050818103600083015261177581611739565b9050919050565b7f4e487b7100000000000000000000000000000000000000000000000000000000600052603260045260246000fdfea2646970667358221220e99f6919d9434db21340cbb08dc47bce85003440777cb4960e7c889fc0bc164564736f6c63430008130033",
  "linkReferences": {},
  "deployedLinkReferences": {}
}