{
  "_format": "hh-sol-artifact-1",
  "contractName": "CrowdFunding",
  "sourceName": "contracts/CrowdFundig.sol",
  "abi": [
    {
      "inputs": [
        {
          "internalType": "uint256",
          "name": "",
          "type": "uint256"
        }
      ],
      "name": "campaigns",
      "outputs": [
        {
          "internalType": "address",
          "name": "owner",
          "type": "address"
        },
        {
          "internalType": "string",
          "name": "title",
          "type": "string"
        },
        {
          "internalType": "string",
          "name": "description",
          "type": "string"
        },
        {
          "internalType": "string",
          "name": "image",
          "type": "string"
        },
        {
          "internalType": "uint256",
          "name": "target",
          "type": "uint256"
        },
        {
          "internalType": "uint256",
          "name": "deadline",
          "type": "uint256"
        },
        {
          "internalType": "uint256",
          "name": "amountCollected",
          "type": "uint256"
        }
      ],
      "stateMutability": "view",
      "type": "function"
    },
    {
      "inputs": [
        {
          "internalType": "address",
          "name": "_owner",
          "type": "address"
        },
        {
          "internalType": "string",
          "name": "_title",
          "type": "string"
        },
        {
          "internalType": "string",
          "name": "_description",
          "type": "string"
        },
        {
          "internalType": "string",
          "name": "_image",
          "type": "string"
        },
        {
          "internalType": "uint256",
          "name": "_target",
          "type": "uint256"
        },
        {
          "internalType": "uint256",
          "name": "_deadline",
          "type": "uint256"
        }
      ],
      "name": "createCampaign",
      "outputs": [
        {
          "internalType": "uint256",
          "name": "",
          "type": "uint256"
        }
      ],
      "stateMutability": "nonpayable",
      "type": "function"
    },
    {
      "inputs": [
        {
          "internalType": "uint256",
          "name": "_id",
          "type": "uint256"
        }
      ],
      "name": "donateToCampaign",
      "outputs": [],
      "stateMutability": "payable",
      "type": "function"
    },
    {
      "inputs": [
        {
          "internalType": "uint256",
          "name": "",
          "type": "uint256"
        },
        {
          "internalType": "uint256",
          "name": "",
          "type": "uint256"
        }
      ],
      "name": "donations",
      "outputs": [
        {
          "internalType": "uint256",
          "name": "",
          "type": "uint256"
        }
      ],
      "stateMutability": "view",
      "type": "function"
    },
    {
      "inputs": [
        {
          "internalType": "uint256",
          "name": "",
          "type": "uint256"
        },
        {
          "internalType": "uint256",
          "name": "",
          "type": "uint256"
        }
      ],
      "name": "donators",
      "outputs": [
        {
          "internalType": "address",
          "name": "",
          "type": "address"
        }
      ],
      "stateMutability": "view",
      "type": "function"
    },
    {
      "inputs": [],
      "name": "getCampaigns",
      "outputs": [
        {
          "components": [
            {
              "internalType": "address",
              "name": "owner",
              "type": "address"
            },
            {
              "internalType": "string",
              "name": "title",
              "type": "string"
            },
            {
              "internalType": "string",
              "name": "description",
              "type": "string"
            },
            {
              "internalType": "string",
              "name": "image",
              "type": "string"
            },
            {
              "internalType": "uint256",
              "name": "target",
              "type": "uint256"
            },
            {
              "internalType": "uint256",
              "name": "deadline",
              "type": "uint256"
            },
            {
              "internalType": "uint256",
              "name": "amountCollected",
              "type": "uint256"
            }
          ],
          "internalType": "struct CrowdFunding.Campaign[]",
          "name": "",
          "type": "tuple[]"
        }
      ],
      "stateMutability": "view",
      "type": "function"
    },
    {
      "inputs": [
        {
          "internalType": "uint256",
          "name": "_id",
          "type": "uint256"
        }
      ],
      "name": "getDonators",
      "outputs": [
        {
          "internalType": "address[]",
          "name": "",
          "type": "address[]"
        },
        {
          "internalType": "uint256[]",
          "name": "",
          "type": "uint256[]"
        }
      ],
      "stateMutability": "view",
      "type": "function"
    },
    {
      "inputs": [],
      "name": "numberOfCampaigns",
      "outputs": [
        {
          "internalType": "uint256",
          "name": "",
          "type": "uint256"
        }
      ],
      "stateMutability": "view",
      "type": "function"
    }
  ],
  "bytecode": "0x6080604052600060035534801561001557600080fd5b50611979806100256000396000f3fe60806040526004361061007b5760003560e01c806348f7b12e1161004e57806348f7b12e146101485780635a8a637d14610185578063a6b03633146101c2578063b69874b9146101ed5761007b565b806307ca140d146100805780630fa91fa9146100ab578063141961bc146100e957806342a4fda81461012c575b600080fd5b34801561008c57600080fd5b5061009561022a565b6040516100a29190610c0e565b60405180910390f35b3480156100b757600080fd5b506100d260048036038101906100cd9190610c69565b610230565b6040516100e0929190610e44565b60405180910390f35b3480156100f557600080fd5b50610110600480360381019061010b9190610c69565b61033c565b6040516101239796959493929190610f1a565b60405180910390f35b61014660048036038101906101419190610c69565b610536565b005b34801561015457600080fd5b5061016f600480360381019061016a9190610f9e565b61070c565b60405161017c9190610c0e565b60405180910390f35b34801561019157600080fd5b506101ac60048036038101906101a7919061113f565b61073d565b6040516101b99190610c0e565b60405180910390f35b3480156101ce57600080fd5b506101d7610865565b6040516101e491906113d6565b60405180910390f35b3480156101f957600080fd5b50610214600480360381019061020f9190610f9e565b610b54565b60405161022191906113f8565b60405180910390f35b60035481565b6060806001600084815260200190815260200160002060026000858152602001908152602001600020818054806020026020016040519081016040528092919081815260200182805480156102da57602002820191906000526020600020905b8160009054906101000a900473ffffffffffffffffffffffffffffffffffffffff1673ffffffffffffffffffffffffffffffffffffffff1681526020019060010190808311610290575b505050505091508080548060200260200160405190810160405280929190818152602001828054801561032c57602002820191906000526020600020905b815481526020019060010190808311610318575b5050505050905091509150915091565b60006020528060005260406000206000915090508060000160009054906101000a900473ffffffffffffffffffffffffffffffffffffffff169080600101805461038590611442565b80601f01602080910402602001604051908101604052809291908181526020018280546103b190611442565b80156103fe5780601f106103d3576101008083540402835291602001916103fe565b820191906000526020600020905b8154815290600101906020018083116103e157829003601f168201915b50505050509080600201805461041390611442565b80601f016020809104026020016040519081016040528092919081815260200182805461043f90611442565b801561048c5780601f106104615761010080835404028352916020019161048c565b820191906000526020600020905b81548152906001019060200180831161046f57829003601f168201915b5050505050908060030180546104a190611442565b80601f01602080910402602001604051908101604052809291908181526020018280546104cd90611442565b801561051a5780601f106104ef5761010080835404028352916020019161051a565b820191906000526020600020905b8154815290600101906020018083116104fd57829003601f168201915b5050505050908060040154908060050154908060060154905087565b60003490506000806000848152602001908152602001600020905060016000600160035461056491906114a2565b8152602001908152602001600020339080600181540180825580915050600190039060005260206000200160009091909190916101000a81548173ffffffffffffffffffffffffffffffffffffffff021916908373ffffffffffffffffffffffffffffffffffffffff1602179055506002600060016003546105e691906114a2565b81526020019081526020016000208290806001815401808255809150506001900390600052602060002001600090919091909150558181600601600082825461062f91906114d6565b9250508190555060008160000160009054906101000a900473ffffffffffffffffffffffffffffffffffffffff1673ffffffffffffffffffffffffffffffffffffffff16836040516106809061153b565b60006040518083038185875af1925050503d80600081146106bd576040519150601f19603f3d011682016040523d82523d6000602084013e6106c2565b606091505b5050905080610706576040517f08c379a00000000000000000000000000000000000000000000000000000000081526004016106fd9061159c565b60405180910390fd5b50505050565b6002602052816000526040600020818154811061072857600080fd5b90600052602060002001600091509150505481565b600080600080600354815260200190815260200160002090504281600501541061079c576040517f08c379a00000000000000000000000000000000000000000000000000000000081526004016107939061162e565b60405180910390fd5b878160000160006101000a81548173ffffffffffffffffffffffffffffffffffffffff021916908373ffffffffffffffffffffffffffffffffffffffff160217905550868160010190816107f091906117fa565b508581600201908161080291906117fa565b508481600301908161081491906117fa565b508381600401819055508281600501819055506000816006018190555060036000815480929190610844906118cc565b9190505550600160035461085891906114a2565b9150509695505050505050565b6060600060035467ffffffffffffffff81111561088557610884611014565b5b6040519080825280602002602001820160405280156108be57816020015b6108ab610ba2565b8152602001906001900390816108a35790505b50905060005b600354811015610b4c5760008060008381526020019081526020016000209050806040518060e00160405290816000820160009054906101000a900473ffffffffffffffffffffffffffffffffffffffff1673ffffffffffffffffffffffffffffffffffffffff1673ffffffffffffffffffffffffffffffffffffffff16815260200160018201805461095690611442565b80601f016020809104026020016040519081016040528092919081815260200182805461098290611442565b80156109cf5780601f106109a4576101008083540402835291602001916109cf565b820191906000526020600020905b8154815290600101906020018083116109b257829003601f168201915b505050505081526020016002820180546109e890611442565b80601f0160208091040260200160405190810160405280929190818152602001828054610a1490611442565b8015610a615780601f10610a3657610100808354040283529160200191610a61565b820191906000526020600020905b815481529060010190602001808311610a4457829003601f168201915b50505050508152602001600382018054610a7a90611442565b80601f0160208091040260200160405190810160405280929190818152602001828054610aa690611442565b8015610af35780601f10610ac857610100808354040283529160200191610af3565b820191906000526020600020905b815481529060010190602001808311610ad657829003601f168201915b505050505081526020016004820154815260200160058201548152602001600682015481525050838381518110610b2d57610b2c611914565b5b6020026020010181905250508080610b44906118cc565b9150506108c4565b508091505090565b60016020528160005260406000208181548110610b7057600080fd5b906000526020600020016000915091509054906101000a900473ffffffffffffffffffffffffffffffffffffffff1681565b6040518060e00160405280600073ffffffffffffffffffffffffffffffffffffffff1681526020016060815260200160608152602001606081526020016000815260200160008152602001600081525090565b6000819050919050565b610c0881610bf5565b82525050565b6000602082019050610c236000830184610bff565b92915050565b6000604051905090565b600080fd5b600080fd5b610c4681610bf5565b8114610c5157600080fd5b50565b600081359050610c6381610c3d565b92915050565b600060208284031215610c7f57610c7e610c33565b5b6000610c8d84828501610c54565b91505092915050565b600081519050919050565b600082825260208201905092915050565b6000819050602082019050919050565b600073ffffffffffffffffffffffffffffffffffffffff82169050919050565b6000610ced82610cc2565b9050919050565b610cfd81610ce2565b82525050565b6000610d0f8383610cf4565b60208301905092915050565b6000602082019050919050565b6000610d3382610c96565b610d3d8185610ca1565b9350610d4883610cb2565b8060005b83811015610d79578151610d608882610d03565b9750610d6b83610d1b565b925050600181019050610d4c565b5085935050505092915050565b600081519050919050565b600082825260208201905092915050565b6000819050602082019050919050565b610dbb81610bf5565b82525050565b6000610dcd8383610db2565b60208301905092915050565b6000602082019050919050565b6000610df182610d86565b610dfb8185610d91565b9350610e0683610da2565b8060005b83811015610e37578151610e1e8882610dc1565b9750610e2983610dd9565b925050600181019050610e0a565b5085935050505092915050565b60006040820190508181036000830152610e5e8185610d28565b90508181036020830152610e728184610de6565b90509392505050565b610e8481610ce2565b82525050565b600081519050919050565b600082825260208201905092915050565b60005b83811015610ec4578082015181840152602081019050610ea9565b60008484015250505050565b6000601f19601f8301169050919050565b6000610eec82610e8a565b610ef68185610e95565b9350610f06818560208601610ea6565b610f0f81610ed0565b840191505092915050565b600060e082019050610f2f600083018a610e7b565b8181036020830152610f418189610ee1565b90508181036040830152610f558188610ee1565b90508181036060830152610f698187610ee1565b9050610f786080830186610bff565b610f8560a0830185610bff565b610f9260c0830184610bff565b98975050505050505050565b60008060408385031215610fb557610fb4610c33565b5b6000610fc385828601610c54565b9250506020610fd485828601610c54565b9150509250929050565b610fe781610ce2565b8114610ff257600080fd5b50565b60008135905061100481610fde565b92915050565b600080fd5b600080fd5b7f4e487b7100000000000000000000000000000000000000000000000000000000600052604160045260246000fd5b61104c82610ed0565b810181811067ffffffffffffffff8211171561106b5761106a611014565b5b80604052505050565b600061107e610c29565b905061108a8282611043565b919050565b600067ffffffffffffffff8211156110aa576110a9611014565b5b6110b382610ed0565b9050602081019050919050565b82818337600083830152505050565b60006110e26110dd8461108f565b611074565b9050828152602081018484840111156110fe576110fd61100f565b5b6111098482856110c0565b509392505050565b600082601f8301126111265761112561100a565b5b81356111368482602086016110cf565b91505092915050565b60008060008060008060c0878903121561115c5761115b610c33565b5b600061116a89828a01610ff5565b965050602087013567ffffffffffffffff81111561118b5761118a610c38565b5b61119789828a01611111565b955050604087013567ffffffffffffffff8111156111b8576111b7610c38565b5b6111c489828a01611111565b945050606087013567ffffffffffffffff8111156111e5576111e4610c38565b5b6111f189828a01611111565b935050608061120289828a01610c54565b92505060a061121389828a01610c54565b9150509295509295509295565b600081519050919050565b600082825260208201905092915050565b6000819050602082019050919050565b600082825260208201905092915050565b600061126882610e8a565b611272818561124c565b9350611282818560208601610ea6565b61128b81610ed0565b840191505092915050565b600060e0830160008301516112ae6000860182610cf4565b50602083015184820360208601526112c6828261125d565b915050604083015184820360408601526112e0828261125d565b915050606083015184820360608601526112fa828261125d565b915050608083015161130f6080860182610db2565b5060a083015161132260a0860182610db2565b5060c083015161133560c0860182610db2565b508091505092915050565b600061134c8383611296565b905092915050565b6000602082019050919050565b600061136c82611220565b611376818561122b565b9350836020820285016113888561123c565b8060005b858110156113c457848403895281516113a58582611340565b94506113b083611354565b925060208a0199505060018101905061138c565b50829750879550505050505092915050565b600060208201905081810360008301526113f08184611361565b905092915050565b600060208201905061140d6000830184610e7b565b92915050565b7f4e487b7100000000000000000000000000000000000000000000000000000000600052602260045260246000fd5b6000600282049050600182168061145a57607f821691505b60208210810361146d5761146c611413565b5b50919050565b7f4e487b7100000000000000000000000000000000000000000000000000000000600052601160045260246000fd5b60006114ad82610bf5565b91506114b883610bf5565b92508282039050818111156114d0576114cf611473565b5b92915050565b60006114e182610bf5565b91506114ec83610bf5565b925082820190508082111561150457611503611473565b5b92915050565b600081905092915050565b50565b600061152560008361150a565b915061153082611515565b600082019050919050565b600061154682611518565b9150819050919050565b7f6661696c65640000000000000000000000000000000000000000000000000000600082015250565b6000611586600683610e95565b915061159182611550565b602082019050919050565b600060208201905081810360008301526115b581611579565b9050919050565b7f54686520646561646c696e652073686f756c642062652061206461746520696e60008201527f20746865206675747572652e0000000000000000000000000000000000000000602082015250565b6000611618602c83610e95565b9150611623826115bc565b604082019050919050565b600060208201905081810360008301526116478161160b565b9050919050565b60008190508160005260206000209050919050565b60006020601f8301049050919050565b600082821b905092915050565b6000600883026116b07fffffffffffffffffffffffffffffffffffffffffffffffffffffffffffffffff82611673565b6116ba8683611673565b95508019841693508086168417925050509392505050565b6000819050919050565b60006116f76116f26116ed84610bf5565b6116d2565b610bf5565b9050919050565b6000819050919050565b611711836116dc565b61172561171d826116fe565b848454611680565b825550505050565b600090565b61173a61172d565b611745818484611708565b505050565b5b818110156117695761175e600082611732565b60018101905061174b565b5050565b601f8211156117ae5761177f8161164e565b61178884611663565b81016020851015611797578190505b6117ab6117a385611663565b83018261174a565b50505b505050565b600082821c905092915050565b60006117d1600019846008026117b3565b1980831691505092915050565b60006117ea83836117c0565b9150826002028217905092915050565b61180382610e8a565b67ffffffffffffffff81111561181c5761181b611014565b5b6118268254611442565b61183182828561176d565b600060209050601f8311600181146118645760008415611852578287015190505b61185c85826117de565b8655506118c4565b601f1984166118728661164e565b60005b8281101561189a57848901518255600182019150602085019450602081019050611875565b868310156118b757848901516118b3601f8916826117c0565b8355505b6001600288020188555050505b505050505050565b60006118d782610bf5565b91507fffffffffffffffffffffffffffffffffffffffffffffffffffffffffffffffff820361190957611908611473565b5b600182019050919050565b7f4e487b7100000000000000000000000000000000000000000000000000000000600052603260045260246000fdfea2646970667358221220e988bd0dac197853d7805ea2b10a234dc4cb6f36bb6264cd9a726f325832a2a064736f6c63430008130033",
  "linkReferences": {},
  "deployedLinkReferences": {}
}